{
  "contractName": "AcademicCredential",
  "abi": [
    {
      "anonymous": false,
      "inputs": [
        {
          "indexed": false,
          "internalType": "string",
          "name": "srn",
          "type": "string"
        },
        {
          "indexed": false,
          "internalType": "string",
          "name": "prn",
          "type": "string"
        },
        {
          "indexed": false,
          "internalType": "string",
          "name": "studentName",
          "type": "string"
        }
      ],
      "name": "CredentialStored",
      "type": "event"
    },
    {
      "inputs": [
        {
          "internalType": "string",
          "name": "",
          "type": "string"
        }
      ],
      "name": "credentials",
      "outputs": [
        {
          "internalType": "string",
          "name": "srn",
          "type": "string"
        },
        {
          "internalType": "string",
          "name": "prn",
          "type": "string"
        },
        {
          "internalType": "uint256",
          "name": "hallTicketNo",
          "type": "uint256"
        },
        {
          "internalType": "uint256",
          "name": "cgpa",
          "type": "uint256"
        },
        {
          "internalType": "uint256",
          "name": "sgpa",
          "type": "uint256"
        },
        {
          "internalType": "string",
          "name": "studentName",
          "type": "string"
        },
        {
          "internalType": "string",
          "name": "collegeName",
          "type": "string"
        }
      ],
      "stateMutability": "view",
      "type": "function",
      "constant": true
    },
    {
      "inputs": [
        {
          "internalType": "string",
          "name": "_srn",
          "type": "string"
        },
        {
          "internalType": "string",
          "name": "_prn",
          "type": "string"
        },
        {
          "internalType": "uint256",
          "name": "_hallTicketNo",
          "type": "uint256"
        },
        {
          "internalType": "uint256",
          "name": "_cgpa",
          "type": "uint256"
        },
        {
          "internalType": "uint256",
          "name": "_sgpa",
          "type": "uint256"
        },
        {
          "internalType": "string",
          "name": "_studentName",
          "type": "string"
        },
        {
          "internalType": "string",
          "name": "_collegeName",
          "type": "string"
        }
      ],
      "name": "storeCredential",
      "outputs": [],
      "stateMutability": "nonpayable",
      "type": "function"
    },
    {
      "inputs": [
        {
          "internalType": "string",
          "name": "_srn",
          "type": "string"
        }
      ],
      "name": "getCredential",
      "outputs": [
        {
          "internalType": "string",
          "name": "",
          "type": "string"
        },
        {
          "internalType": "string",
          "name": "",
          "type": "string"
        },
        {
          "internalType": "uint256",
          "name": "",
          "type": "uint256"
        },
        {
          "internalType": "uint256",
          "name": "",
          "type": "uint256"
        },
        {
          "internalType": "uint256",
          "name": "",
          "type": "uint256"
        },
        {
          "internalType": "string",
          "name": "",
          "type": "string"
        },
        {
          "internalType": "string",
          "name": "",
          "type": "string"
        }
      ],
      "stateMutability": "view",
      "type": "function",
      "constant": true
    }
  ],
  "bytecode": "0x608060405234801561001057600080fd5b50610cd2806100206000396000f3fe608060405234801561001057600080fd5b50600436106100415760003560e01c806379fec8ba14610046578063bf4af9b114610062578063d091187f14610098575b600080fd5b610060600480360381019061005b91906108ab565b6100ce565b005b61007c6004803603810190610077919061086a565b6101f8565b60405161008f9796959493929190610a85565b60405180910390f35b6100b260048036038101906100ad919061086a565b610470565b6040516100c59796959493929190610a85565b60405180910390f35b6040518060e00160405280888152602001878152602001868152602001858152602001848152602001838152602001828152506000886040516101119190610a22565b9081526020016040518091039020600082015181600001908051906020019061013b92919061074a565b50602082015181600101908051906020019061015892919061074a565b5060408201518160020155606082015181600301556080820151816004015560a082015181600501908051906020019061019392919061074a565b5060c08201518160060190805190602001906101b092919061074a565b509050507f1a5635d2e9409bf701106053f6e8a875ee21d357314f58e6bf2cbff5ae852f8f8787846040516101e793929190610a39565b60405180910390a150505050505050565b60008180516020810182018051848252602083016020850120818352809550505050505060009150905080600001805461023190610be4565b80601f016020809104026020016040519081016040528092919081815260200182805461025d90610be4565b80156102aa5780601f1061027f576101008083540402835291602001916102aa565b820191906000526020600020905b81548152906001019060200180831161028d57829003601f168201915b5050505050908060010180546102bf90610be4565b80601f01602080910402602001604051908101604052809291908181526020018280546102eb90610be4565b80156103385780601f1061030d57610100808354040283529160200191610338565b820191906000526020600020905b81548152906001019060200180831161031b57829003601f168201915b50505050509080600201549080600301549080600401549080600501805461035f90610be4565b80601f016020809104026020016040519081016040528092919081815260200182805461038b90610be4565b80156103d85780601f106103ad576101008083540402835291602001916103d8565b820191906000526020600020905b8154815290600101906020018083116103bb57829003601f168201915b5050505050908060060180546103ed90610be4565b80601f016020809104026020016040519081016040528092919081815260200182805461041990610be4565b80156104665780601f1061043b57610100808354040283529160200191610466565b820191906000526020600020905b81548152906001019060200180831161044957829003601f168201915b5050505050905087565b60608060008060006060806000808960405161048c9190610a22565b90815260200160405180910390206040518060e00160405290816000820180546104b590610be4565b80601f01602080910402602001604051908101604052809291908181526020018280546104e190610be4565b801561052e5780601f106105035761010080835404028352916020019161052e565b820191906000526020600020905b81548152906001019060200180831161051157829003601f168201915b5050505050815260200160018201805461054790610be4565b80601f016020809104026020016040519081016040528092919081815260200182805461057390610be4565b80156105c05780601f10610595576101008083540402835291602001916105c0565b820191906000526020600020905b8154815290600101906020018083116105a357829003601f168201915b505050505081526020016002820154815260200160038201548152602001600482015481526020016005820180546105f790610be4565b80601f016020809104026020016040519081016040528092919081815260200182805461062390610be4565b80156106705780601f1061064557610100808354040283529160200191610670565b820191906000526020600020905b81548152906001019060200180831161065357829003601f168201915b5050505050815260200160068201805461068990610be4565b80601f01602080910402602001604051908101604052809291908181526020018280546106b590610be4565b80156107025780601f106106d757610100808354040283529160200191610702565b820191906000526020600020905b8154815290600101906020018083116106e557829003601f168201915b5050505050815250509050806000015181602001518260400151836060015184608001518560a001518660c00151975097509750975097509750975050919395979092949650565b82805461075690610be4565b90600052602060002090601f01602090048101928261077857600085556107bf565b82601f1061079157805160ff19168380011785556107bf565b828001600101855582156107bf579182015b828111156107be5782518255916020019190600101906107a3565b5b5090506107cc91906107d0565b5090565b5b808211156107e95760008160009055506001016107d1565b5090565b60006108006107fb84610b41565b610b10565b90508281526020810184848401111561081857600080fd5b610823848285610ba2565b509392505050565b600082601f83011261083c57600080fd5b813561084c8482602086016107ed565b91505092915050565b60008135905061086481610c85565b92915050565b60006020828403121561087c57600080fd5b600082013567ffffffffffffffff81111561089657600080fd5b6108a28482850161082b565b91505092915050565b600080600080600080600060e0888a0312156108c657600080fd5b600088013567ffffffffffffffff8111156108e057600080fd5b6108ec8a828b0161082b565b975050602088013567ffffffffffffffff81111561090957600080fd5b6109158a828b0161082b565b96505060406109268a828b01610855565b95505060606109378a828b01610855565b94505060806109488a828b01610855565b93505060a088013567ffffffffffffffff81111561096557600080fd5b6109718a828b0161082b565b92505060c088013567ffffffffffffffff81111561098e57600080fd5b61099a8a828b0161082b565b91505092959891949750929550565b60006109b482610b71565b6109be8185610b7c565b93506109ce818560208601610bb1565b6109d781610c74565b840191505092915050565b60006109ed82610b71565b6109f78185610b8d565b9350610a07818560208601610bb1565b80840191505092915050565b610a1c81610b98565b82525050565b6000610a2e82846109e2565b915081905092915050565b60006060820190508181036000830152610a5381866109a9565b90508181036020830152610a6781856109a9565b90508181036040830152610a7b81846109a9565b9050949350505050565b600060e0820190508181036000830152610a9f818a6109a9565b90508181036020830152610ab381896109a9565b9050610ac26040830188610a13565b610acf6060830187610a13565b610adc6080830186610a13565b81810360a0830152610aee81856109a9565b905081810360c0830152610b0281846109a9565b905098975050505050505050565b6000604051905081810181811067ffffffffffffffff82111715610b3757610b36610c45565b5b8060405250919050565b600067ffffffffffffffff821115610b5c57610b5b610c45565b5b601f19601f8301169050602081019050919050565b600081519050919050565b600082825260208201905092915050565b600081905092915050565b6000819050919050565b82818337600083830152505050565b60005b83811015610bcf578082015181840152602081019050610bb4565b83811115610bde576000848401525b50505050565b60006002820490506001821680610bfc57607f821691505b60208210811415610c1057610c0f610c16565b5b50919050565b7f4e487b7100000000000000000000000000000000000000000000000000000000600052602260045260246000fd5b7f4e487b7100000000000000000000000000000000000000000000000000000000600052604160045260246000fd5b6000601f19601f8301169050919050565b610c8e81610b98565b8114610c9957600080fd5b5056fea2646970667358221220bdcb002058eee53bec0a109e9f5955eecba7db4d0731a802f0d9a563ee83d8ce64736f6c63430008000033",
  "immutableReferences": {},
  "source": "// SPDX-License-Identifier: MIT\r\npragma solidity ^0.8.0;\r\n\r\ncontract AcademicCredential {\r\n    struct Credential {\r\n        string srn;\r\n        string prn;\r\n        uint256 hallTicketNo;\r\n        uint256 cgpa;\r\n        uint256 sgpa;\r\n        string studentName;\r\n        string collegeName;\r\n    }\r\n\r\n    mapping(string => Credential) public credentials;\r\n\r\n    event CredentialStored(string srn, string prn, string studentName);\r\n\r\n    function storeCredential(\r\n        string memory _srn,\r\n        string memory _prn,\r\n        uint256 _hallTicketNo,\r\n        uint256 _cgpa,\r\n        uint256 _sgpa,\r\n        string memory _studentName,\r\n        string memory _collegeName\r\n    ) public {\r\n        credentials[_srn] = Credential(\r\n            _srn,\r\n            _prn,\r\n            _hallTicketNo,\r\n            _cgpa,\r\n            _sgpa,\r\n            _studentName,\r\n            _collegeName\r\n        );\r\n\r\n        emit CredentialStored(_srn, _prn, _studentName);\r\n    }\r\n\r\n    function getCredential(string memory _srn)\r\n        public\r\n        view\r\n        returns (\r\n            string memory,\r\n            string memory,\r\n            uint256,\r\n            uint256,\r\n            uint256,\r\n            string memory,\r\n            string memory\r\n        )\r\n    {\r\n        Credential memory cred = credentials[_srn];\r\n        return (\r\n            cred.srn,\r\n            cred.prn,\r\n            cred.hallTicketNo,\r\n            cred.cgpa,\r\n            cred.sgpa,\r\n            cred.studentName,\r\n            cred.collegeName\r\n        );\r\n    }\r\n}\r\n",
  "sourcePath": "C:\\Users\\manda\\MY CODING\\Blockchain\\RRO\\contracts\\AcademicCredentials.sol",
  "compiler": {
    "name": "solc",
    "version": "0.8.0+commit.c7dfd78e.Emscripten.clang"
  },
  "schemaVersion": "3.4.16",
  "updatedAt": "2024-10-08T03:40:53.991Z",
  "networkType": "ethereum",
  "devdoc": {
    "kind": "dev",
    "methods": {},
    "version": 1
  },
  "userdoc": {
    "kind": "user",
    "methods": {},
    "version": 1
  }
}