{
  "contractName": "UserRegistry",
  "abi": [
    {
      "inputs": [
        {
          "internalType": "address",
          "name": "",
          "type": "address"
        }
      ],
      "name": "users",
      "outputs": [
        {
          "internalType": "string",
          "name": "username",
          "type": "string"
        },
        {
          "internalType": "string",
          "name": "email",
          "type": "string"
        },
        {
          "internalType": "bytes32",
          "name": "passwordHash",
          "type": "bytes32"
        }
      ],
      "stateMutability": "view",
      "type": "function"
    },
    {
      "inputs": [
        {
          "internalType": "string",
          "name": "_username",
          "type": "string"
        },
        {
          "internalType": "string",
          "name": "_email",
          "type": "string"
        },
        {
          "internalType": "string",
          "name": "_password",
          "type": "string"
        }
      ],
      "name": "register",
      "outputs": [],
      "stateMutability": "nonpayable",
      "type": "function"
    },
    {
      "inputs": [
        {
          "internalType": "address",
          "name": "_user",
          "type": "address"
        }
      ],
      "name": "getUser",
      "outputs": [
        {
          "internalType": "string",
          "name": "",
          "type": "string"
        },
        {
          "internalType": "string",
          "name": "",
          "type": "string"
        }
      ],
      "stateMutability": "view",
      "type": "function"
    }
  ],
  "bytecode": "0x608060405234801561001057600080fd5b50610942806100206000396000f3fe608060405234801561001057600080fd5b50600436106100415760003560e01c80634cd08d03146100465780636f77926b14610062578063a87430ba14610093575b600080fd5b610060600480360381019061005b91906105ab565b6100c5565b005b61007c60048036038101906100779190610582565b610196565b60405161008a9291906106d2565b60405180910390f35b6100ad60048036038101906100a89190610582565b610328565b6040516100bc93929190610709565b60405180910390f35b6000816040516020016100d891906106bb565b6040516020818303038152906040528051906020012090506040518060600160405280858152602001848152602001828152506000803373ffffffffffffffffffffffffffffffffffffffff1673ffffffffffffffffffffffffffffffffffffffff1681526020019081526020016000206000820151816000019080519060200190610165929190610462565b506020820151816001019080519060200190610182929190610462565b506040820151816002015590505050505050565b60608060008060008573ffffffffffffffffffffffffffffffffffffffff1673ffffffffffffffffffffffffffffffffffffffff1681526020019081526020016000206040518060600160405290816000820180546101f490610854565b80601f016020809104026020016040519081016040528092919081815260200182805461022090610854565b801561026d5780601f106102425761010080835404028352916020019161026d565b820191906000526020600020905b81548152906001019060200180831161025057829003601f168201915b5050505050815260200160018201805461028690610854565b80601f01602080910402602001604051908101604052809291908181526020018280546102b290610854565b80156102ff5780601f106102d4576101008083540402835291602001916102ff565b820191906000526020600020905b8154815290600101906020018083116102e257829003601f168201915b505050505081526020016002820154815250509050806000015181602001519250925050915091565b600060205280600052604060002060009150905080600001805461034b90610854565b80601f016020809104026020016040519081016040528092919081815260200182805461037790610854565b80156103c45780601f10610399576101008083540402835291602001916103c4565b820191906000526020600020905b8154815290600101906020018083116103a757829003601f168201915b5050505050908060010180546103d990610854565b80601f016020809104026020016040519081016040528092919081815260200182805461040590610854565b80156104525780601f1061042757610100808354040283529160200191610452565b820191906000526020600020905b81548152906001019060200180831161043557829003601f168201915b5050505050908060020154905083565b82805461046e90610854565b90600052602060002090601f01602090048101928261049057600085556104d7565b82601f106104a957805160ff19168380011785556104d7565b828001600101855582156104d7579182015b828111156104d65782518255916020019190600101906104bb565b5b5090506104e491906104e8565b5090565b5b808211156105015760008160009055506001016104e9565b5090565b60006105186105138461077f565b61074e565b90508281526020810184848401111561053057600080fd5b61053b848285610812565b509392505050565b600081359050610552816108f5565b92915050565b600082601f83011261056957600080fd5b8135610579848260208601610505565b91505092915050565b60006020828403121561059457600080fd5b60006105a284828501610543565b91505092915050565b6000806000606084860312156105c057600080fd5b600084013567ffffffffffffffff8111156105da57600080fd5b6105e686828701610558565b935050602084013567ffffffffffffffff81111561060357600080fd5b61060f86828701610558565b925050604084013567ffffffffffffffff81111561062c57600080fd5b61063886828701610558565b9150509250925092565b61064b816107e8565b82525050565b600061065c826107af565b61066681856107ba565b9350610676818560208601610821565b61067f816108e4565b840191505092915050565b6000610695826107af565b61069f81856107cb565b93506106af818560208601610821565b80840191505092915050565b60006106c7828461068a565b915081905092915050565b600060408201905081810360008301526106ec8185610651565b905081810360208301526107008184610651565b90509392505050565b600060608201905081810360008301526107238186610651565b905081810360208301526107378185610651565b90506107466040830184610642565b949350505050565b6000604051905081810181811067ffffffffffffffff82111715610775576107746108b5565b5b8060405250919050565b600067ffffffffffffffff82111561079a576107996108b5565b5b601f19601f8301169050602081019050919050565b600081519050919050565b600082825260208201905092915050565b600081905092915050565b60006107e1826107f2565b9050919050565b6000819050919050565b600073ffffffffffffffffffffffffffffffffffffffff82169050919050565b82818337600083830152505050565b60005b8381101561083f578082015181840152602081019050610824565b8381111561084e576000848401525b50505050565b6000600282049050600182168061086c57607f821691505b602082108114156108805761087f610886565b5b50919050565b7f4e487b7100000000000000000000000000000000000000000000000000000000600052602260045260246000fd5b7f4e487b7100000000000000000000000000000000000000000000000000000000600052604160045260246000fd5b6000601f19601f8301169050919050565b6108fe816107d6565b811461090957600080fd5b5056fea2646970667358221220ecc23cf6a0595383409a6759b176a8e235bab47b144ec126b5c336d2c982252464736f6c63430008000033",
  "immutableReferences": {},
  "source": "// SPDX-License-Identifier: MIT\r\npragma solidity ^0.8.0;\r\n\r\ncontract UserRegistry {\r\n    struct User {\r\n        string username;\r\n        string email;\r\n        bytes32 passwordHash; // Store the password as a hash\r\n    }\r\n\r\n    mapping(address => User) public users;\r\n\r\n    function register(string memory _username, string memory _email, string memory _password) public {\r\n        // Hash the password before storing it\r\n        bytes32 passwordHash = keccak256(abi.encodePacked(_password));\r\n\r\n        users[msg.sender] = User(_username, _email, passwordHash);\r\n    }\r\n\r\n    function getUser(address _user) public view returns (string memory, string memory) {\r\n        User memory user = users[_user];\r\n        return (user.username, user.email);\r\n    }\r\n}\r\n",
  "sourcePath": "C:\\Users\\manda\\MY CODING\\Blockchain\\RRO\\contracts\\UserRegistry.sol",
  "compiler": {
    "name": "solc",
    "version": "0.8.0+commit.c7dfd78e.Emscripten.clang"
  },
  "schemaVersion": "3.4.16",
  "updatedAt": "2024-09-30T03:25:50.789Z",
  "devdoc": {
    "kind": "dev",
    "methods": {},
    "version": 1
  },
  "userdoc": {
    "kind": "user",
    "methods": {},
    "version": 1
  }
}